{
  "contractName": "ExamContract",
  "abi": [
    {
      "anonymous": false,
      "inputs": [
        {
          "indexed": true,
          "internalType": "uint256",
          "name": "_studentId",
          "type": "uint256"
        }
      ],
      "name": "studentCreated",
      "type": "event"
    },
    {
      "anonymous": false,
      "inputs": [
        {
          "indexed": true,
          "internalType": "uint256",
          "name": "_userId",
          "type": "uint256"
        }
      ],
      "name": "userCreated",
      "type": "event"
    },
    {
      "inputs": [],
      "name": "studentCount",
      "outputs": [
        {
          "internalType": "uint256",
          "name": "",
          "type": "uint256"
        }
      ],
      "stateMutability": "view",
      "type": "function",
      "constant": true
    },
    {
      "inputs": [
        {
          "internalType": "uint256",
          "name": "",
          "type": "uint256"
        }
      ],
      "name": "studentList",
      "outputs": [
        {
          "internalType": "string",
          "name": "studentId",
          "type": "string"
        },
        {
          "internalType": "string",
          "name": "name",
          "type": "string"
        },
        {
          "internalType": "string",
          "name": "firstQuestion",
          "type": "string"
        },
        {
          "internalType": "string",
          "name": "secondQuestion",
          "type": "string"
        },
        {
          "internalType": "string",
          "name": "thirdQuestion",
          "type": "string"
        },
        {
          "internalType": "string",
          "name": "fourthQuestion",
          "type": "string"
        },
        {
          "internalType": "string",
          "name": "fifthQuestion",
          "type": "string"
        },
        {
          "internalType": "string",
          "name": "completeDate",
          "type": "string"
        },
        {
          "internalType": "string",
          "name": "timeTaken",
          "type": "string"
        },
        {
          "internalType": "string",
          "name": "grade",
          "type": "string"
        }
      ],
      "stateMutability": "view",
      "type": "function",
      "constant": true
    },
    {
      "inputs": [],
      "name": "userCount",
      "outputs": [
        {
          "internalType": "uint256",
          "name": "",
          "type": "uint256"
        }
      ],
      "stateMutability": "view",
      "type": "function",
      "constant": true
    },
    {
      "inputs": [
        {
          "internalType": "uint256",
          "name": "",
          "type": "uint256"
        }
      ],
      "name": "usersList",
      "outputs": [
        {
          "internalType": "string",
          "name": "username",
          "type": "string"
        },
        {
          "internalType": "string",
          "name": "password",
          "type": "string"
        }
      ],
      "stateMutability": "view",
      "type": "function",
      "constant": true
    },
    {
      "inputs": [
        {
          "internalType": "string",
          "name": "sid",
          "type": "string"
        },
        {
          "internalType": "string",
          "name": "sname",
          "type": "string"
        },
        {
          "internalType": "string",
          "name": "first",
          "type": "string"
        },
        {
          "internalType": "string",
          "name": "second",
          "type": "string"
        },
        {
          "internalType": "string",
          "name": "third",
          "type": "string"
        },
        {
          "internalType": "string",
          "name": "fourth",
          "type": "string"
        },
        {
          "internalType": "string",
          "name": "fifth",
          "type": "string"
        },
        {
          "internalType": "string",
          "name": "cd",
          "type": "string"
        },
        {
          "internalType": "string",
          "name": "tt",
          "type": "string"
        },
        {
          "internalType": "string",
          "name": "g",
          "type": "string"
        }
      ],
      "name": "createGrade",
      "outputs": [],
      "stateMutability": "nonpayable",
      "type": "function"
    },
    {
      "inputs": [],
      "name": "getStudentCount",
      "outputs": [
        {
          "internalType": "uint256",
          "name": "",
          "type": "uint256"
        }
      ],
      "stateMutability": "view",
      "type": "function",
      "constant": true
    },
    {
      "inputs": [
        {
          "internalType": "uint256",
          "name": "i",
          "type": "uint256"
        }
      ],
      "name": "getStudentId",
      "outputs": [
        {
          "internalType": "string",
          "name": "",
          "type": "string"
        }
      ],
      "stateMutability": "view",
      "type": "function",
      "constant": true
    },
    {
      "inputs": [
        {
          "internalType": "uint256",
          "name": "i",
          "type": "uint256"
        }
      ],
      "name": "getName",
      "outputs": [
        {
          "internalType": "string",
          "name": "",
          "type": "string"
        }
      ],
      "stateMutability": "view",
      "type": "function",
      "constant": true
    },
    {
      "inputs": [
        {
          "internalType": "uint256",
          "name": "i",
          "type": "uint256"
        }
      ],
      "name": "getFirstQuestion",
      "outputs": [
        {
          "internalType": "string",
          "name": "",
          "type": "string"
        }
      ],
      "stateMutability": "view",
      "type": "function",
      "constant": true
    },
    {
      "inputs": [
        {
          "internalType": "uint256",
          "name": "i",
          "type": "uint256"
        }
      ],
      "name": "getSecondQuestion",
      "outputs": [
        {
          "internalType": "string",
          "name": "",
          "type": "string"
        }
      ],
      "stateMutability": "view",
      "type": "function",
      "constant": true
    },
    {
      "inputs": [
        {
          "internalType": "uint256",
          "name": "i",
          "type": "uint256"
        }
      ],
      "name": "getThirdQuestion",
      "outputs": [
        {
          "internalType": "string",
          "name": "",
          "type": "string"
        }
      ],
      "stateMutability": "view",
      "type": "function",
      "constant": true
    },
    {
      "inputs": [
        {
          "internalType": "uint256",
          "name": "i",
          "type": "uint256"
        }
      ],
      "name": "getFourthQuestion",
      "outputs": [
        {
          "internalType": "string",
          "name": "",
          "type": "string"
        }
      ],
      "stateMutability": "view",
      "type": "function",
      "constant": true
    },
    {
      "inputs": [
        {
          "internalType": "uint256",
          "name": "i",
          "type": "uint256"
        }
      ],
      "name": "getFifthQuestion",
      "outputs": [
        {
          "internalType": "string",
          "name": "",
          "type": "string"
        }
      ],
      "stateMutability": "view",
      "type": "function",
      "constant": true
    },
    {
      "inputs": [
        {
          "internalType": "uint256",
          "name": "i",
          "type": "uint256"
        }
      ],
      "name": "getDate",
      "outputs": [
        {
          "internalType": "string",
          "name": "",
          "type": "string"
        }
      ],
      "stateMutability": "view",
      "type": "function",
      "constant": true
    },
    {
      "inputs": [
        {
          "internalType": "uint256",
          "name": "i",
          "type": "uint256"
        }
      ],
      "name": "getTime",
      "outputs": [
        {
          "internalType": "string",
          "name": "",
          "type": "string"
        }
      ],
      "stateMutability": "view",
      "type": "function",
      "constant": true
    },
    {
      "inputs": [
        {
          "internalType": "uint256",
          "name": "i",
          "type": "uint256"
        }
      ],
      "name": "getGrade",
      "outputs": [
        {
          "internalType": "string",
          "name": "",
          "type": "string"
        }
      ],
      "stateMutability": "view",
      "type": "function",
      "constant": true
    },
    {
      "inputs": [
        {
          "internalType": "string",
          "name": "_username",
          "type": "string"
        },
        {
          "internalType": "string",
          "name": "_password",
          "type": "string"
        }
      ],
      "name": "createUser",
      "outputs": [],
      "stateMutability": "nonpayable",
      "type": "function"
    },
    {
      "inputs": [],
      "name": "getUserCount",
      "outputs": [
        {
          "internalType": "uint256",
          "name": "",
          "type": "uint256"
        }
      ],
      "stateMutability": "view",
      "type": "function",
      "constant": true
    },
    {
      "inputs": [
        {
          "internalType": "uint256",
          "name": "i",
          "type": "uint256"
        }
      ],
      "name": "getUsername",
      "outputs": [
        {
          "internalType": "string",
          "name": "",
          "type": "string"
        }
      ],
      "stateMutability": "view",
      "type": "function",
      "constant": true
    },
    {
      "inputs": [
        {
          "internalType": "uint256",
          "name": "i",
          "type": "uint256"
        }
      ],
      "name": "getPassword",
      "outputs": [
        {
          "internalType": "string",
          "name": "",
          "type": "string"
        }
      ],
      "stateMutability": "view",
      "type": "function",
      "constant": true
    }
  ],
  "bytecode": "0x608060405260008055600060025534801561001957600080fd5b50614e0a806100296000396000f3fe608060405234801561001057600080fd5b5060043610610149576000357c0100000000000000000000000000000000000000000000000000000000900480637df221e9116100ca578063de74033e1161008e578063de74033e14610291578063e1e0485e146102a4578063e581f9ee146102b7578063f18d18cc146102c0578063f38c6bb6146102d357600080fd5b80637df221e91461022557806380a88afc1461024e57806387b162b514610261578063b5a079a514610276578063b5cb15f71461028957600080fd5b806341e0c4071161011157806341e0c407146101c3578063502aa3b5146101cb578063558858f0146101ec5780636b8ff574146101ff578063736278261461021257600080fd5b806307973ccf1461014e578063176e55031461016a578063182c9a581461018a5780632b57298b1461019d5780633cac51fb146101b0575b600080fd5b61015760025481565b6040519081526020015b60405180910390f35b61017d61017836600461490a565b6102e6565b6040516101619190614970565b61017d61019836600461490a565b6108c9565b61017d6101ab36600461490a565b610eac565b61017d6101be36600461490a565b61148f565b600054610157565b6101de6101d936600461490a565b611a70565b60405161016192919061498a565b61017d6101fa36600461490a565b611b9c565b61017d61020d36600461490a565b61217f565b61017d61022036600461490a565b612762565b61023861023336600461490a565b612d46565b6040516101619a999897969594939291906149b8565b61017d61025c36600461490a565b6132e2565b61027461026f366004614b4f565b6138c5565b005b610274610284366004614bb3565b613961565b600254610157565b61017d61029f36600461490a565b613b22565b61017d6102b236600461490a565b614105565b61015760005481565b61017d6102ce36600461490a565b6146e9565b61017d6102e136600461490a565b6147ad565b60606000600160008481526020019081526020016000206040518061014001604052908160008201805461031990614d3e565b80601f016020809104026020016040519081016040528092919081815260200182805461034590614d3e565b80156103925780601f1061036757610100808354040283529160200191610392565b820191906000526020600020905b81548152906001019060200180831161037557829003601f168201915b505050505081526020016001820180546103ab90614d3e565b80601f01602080910402602001604051908101604052809291908181526020018280546103d790614d3e565b80156104245780601f106103f957610100808354040283529160200191610424565b820191906000526020600020905b81548152906001019060200180831161040757829003601f168201915b5050505050815260200160028201805461043d90614d3e565b80601f016020809104026020016040519081016040528092919081815260200182805461046990614d3e565b80156104b65780601f1061048b576101008083540402835291602001916104b6565b820191906000526020600020905b81548152906001019060200180831161049957829003601f168201915b505050505081526020016003820180546104cf90614d3e565b80601f01602080910402602001604051908101604052809291908181526020018280546104fb90614d3e565b80156105485780601f1061051d57610100808354040283529160200191610548565b820191906000526020600020905b81548152906001019060200180831161052b57829003601f168201915b5050505050815260200160048201805461056190614d3e565b80601f016020809104026020016040519081016040528092919081815260200182805461058d90614d3e565b80156105da5780601f106105af576101008083540402835291602001916105da565b820191906000526020600020905b8154815290600101906020018083116105bd57829003601f168201915b505050505081526020016005820180546105f390614d3e565b80601f016020809104026020016040519081016040528092919081815260200182805461061f90614d3e565b801561066c5780601f106106415761010080835404028352916020019161066c565b820191906000526020600020905b81548152906001019060200180831161064f57829003601f168201915b5050505050815260200160068201805461068590614d3e565b80601f01602080910402602001604051908101604052809291908181526020018280546106b190614d3e565b80156106fe5780601f106106d3576101008083540402835291602001916106fe565b820191906000526020600020905b8154815290600101906020018083116106e157829003601f168201915b5050505050815260200160078201805461071790614d3e565b80601f016020809104026020016040519081016040528092919081815260200182805461074390614d3e565b80156107905780601f1061076557610100808354040283529160200191610790565b820191906000526020600020905b81548152906001019060200180831161077357829003601f168201915b505050505081526020016008820180546107a990614d3e565b80601f01602080910402602001604051908101604052809291908181526020018280546107d590614d3e565b80156108225780601f106107f757610100808354040283529160200191610822565b820191906000526020600020905b81548152906001019060200180831161080557829003601f168201915b5050505050815260200160098201805461083b90614d3e565b80601f016020809104026020016040519081016040528092919081815260200182805461086790614d3e565b80156108b45780601f10610889576101008083540402835291602001916108b4565b820191906000526020600020905b81548152906001019060200180831161089757829003601f168201915b50505091909252505050606001519392505050565b6060600060016000848152602001908152602001600020604051806101400160405290816000820180546108fc90614d3e565b80601f016020809104026020016040519081016040528092919081815260200182805461092890614d3e565b80156109755780601f1061094a57610100808354040283529160200191610975565b820191906000526020600020905b81548152906001019060200180831161095857829003601f168201915b5050505050815260200160018201805461098e90614d3e565b80601f01602080910402602001604051908101604052809291908181526020018280546109ba90614d3e565b8015610a075780601f106109dc57610100808354040283529160200191610a07565b820191906000526020600020905b8154815290600101906020018083116109ea57829003601f168201915b50505050508152602001600282018054610a2090614d3e565b80601f0160208091040260200160405190810160405280929190818152602001828054610a4c90614d3e565b8015610a995780601f10610a6e57610100808354040283529160200191610a99565b820191906000526020600020905b815481529060010190602001808311610a7c57829003601f168201915b50505050508152602001600382018054610ab290614d3e565b80601f0160208091040260200160405190810160405280929190818152602001828054610ade90614d3e565b8015610b2b5780601f10610b0057610100808354040283529160200191610b2b565b820191906000526020600020905b815481529060010190602001808311610b0e57829003601f168201915b50505050508152602001600482018054610b4490614d3e565b80601f0160208091040260200160405190810160405280929190818152602001828054610b7090614d3e565b8015610bbd5780601f10610b9257610100808354040283529160200191610bbd565b820191906000526020600020905b815481529060010190602001808311610ba057829003601f168201915b50505050508152602001600582018054610bd690614d3e565b80601f0160208091040260200160405190810160405280929190818152602001828054610c0290614d3e565b8015610c4f5780601f10610c2457610100808354040283529160200191610c4f565b820191906000526020600020905b815481529060010190602001808311610c3257829003601f168201915b50505050508152602001600682018054610c6890614d3e565b80601f0160208091040260200160405190810160405280929190818152602001828054610c9490614d3e565b8015610ce15780601f10610cb657610100808354040283529160200191610ce1565b820191906000526020600020905b815481529060010190602001808311610cc457829003601f168201915b50505050508152602001600782018054610cfa90614d3e565b80601f0160208091040260200160405190810160405280929190818152602001828054610d2690614d3e565b8015610d735780601f10610d4857610100808354040283529160200191610d73565b820191906000526020600020905b815481529060010190602001808311610d5657829003601f168201915b50505050508152602001600882018054610d8c90614d3e565b80601f0160208091040260200160405190810160405280929190818152602001828054610db890614d3e565b8015610e055780601f10610dda57610100808354040283529160200191610e05565b820191906000526020600020905b815481529060010190602001808311610de857829003601f168201915b50505050508152602001600982018054610e1e90614d3e565b80601f0160208091040260200160405190810160405280929190818152602001828054610e4a90614d3e565b8015610e975780601f10610e6c57610100808354040283529160200191610e97565b820191906000526020600020905b815481529060010190602001808311610e7a57829003601f168201915b5050509190925250505060a001519392505050565b606060006001600084815260200190815260200160002060405180610140016040529081600082018054610edf90614d3e565b80601f0160208091040260200160405190810160405280929190818152602001828054610f0b90614d3e565b8015610f585780601f10610f2d57610100808354040283529160200191610f58565b820191906000526020600020905b815481529060010190602001808311610f3b57829003601f168201915b50505050508152602001600182018054610f7190614d3e565b80601f0160208091040260200160405190810160405280929190818152602001828054610f9d90614d3e565b8015610fea5780601f10610fbf57610100808354040283529160200191610fea565b820191906000526020600020905b815481529060010190602001808311610fcd57829003601f168201915b5050505050815260200160028201805461100390614d3e565b80601f016020809104026020016040519081016040528092919081815260200182805461102f90614d3e565b801561107c5780601f106110515761010080835404028352916020019161107c565b820191906000526020600020905b81548152906001019060200180831161105f57829003601f168201915b5050505050815260200160038201805461109590614d3e565b80601f01602080910402602001604051908101604052809291908181526020018280546110c190614d3e565b801561110e5780601f106110e35761010080835404028352916020019161110e565b820191906000526020600020905b8154815290600101906020018083116110f157829003601f168201915b5050505050815260200160048201805461112790614d3e565b80601f016020809104026020016040519081016040528092919081815260200182805461115390614d3e565b80156111a05780601f10611175576101008083540402835291602001916111a0565b820191906000526020600020905b81548152906001019060200180831161118357829003601f168201915b505050505081526020016005820180546111b990614d3e565b80601f01602080910402602001604051908101604052809291908181526020018280546111e590614d3e565b80156112325780601f1061120757610100808354040283529160200191611232565b820191906000526020600020905b81548152906001019060200180831161121557829003601f168201915b5050505050815260200160068201805461124b90614d3e565b80601f016020809104026020016040519081016040528092919081815260200182805461127790614d3e565b80156112c45780601f10611299576101008083540402835291602001916112c4565b820191906000526020600020905b8154815290600101906020018083116112a757829003601f168201915b505050505081526020016007820180546112dd90614d3e565b80601f016020809104026020016040519081016040528092919081815260200182805461130990614d3e565b80156113565780601f1061132b57610100808354040283529160200191611356565b820191906000526020600020905b81548152906001019060200180831161133957829003601f168201915b5050505050815260200160088201805461136f90614d3e565b80601f016020809104026020016040519081016040528092919081815260200182805461139b90614d3e565b80156113e85780601f106113bd576101008083540402835291602001916113e8565b820191906000526020600020905b8154815290600101906020018083116113cb57829003601f168201915b5050505050815260200160098201805461140190614d3e565b80601f016020809104026020016040519081016040528092919081815260200182805461142d90614d3e565b801561147a5780601f1061144f5761010080835404028352916020019161147a565b820191906000526020600020905b81548152906001019060200180831161145d57829003601f168201915b5050509190925250505060e001519392505050565b6060600060016000848152602001908152602001600020604051806101400160405290816000820180546114c290614d3e565b80601f01602080910402602001604051908101604052809291908181526020018280546114ee90614d3e565b801561153b5780601f106115105761010080835404028352916020019161153b565b820191906000526020600020905b81548152906001019060200180831161151e57829003601f168201915b5050505050815260200160018201805461155490614d3e565b80601f016020809104026020016040519081016040528092919081815260200182805461158090614d3e565b80156115cd5780601f106115a2576101008083540402835291602001916115cd565b820191906000526020600020905b8154815290600101906020018083116115b057829003601f168201915b505050505081526020016002820180546115e690614d3e565b80601f016020809104026020016040519081016040528092919081815260200182805461161290614d3e565b801561165f5780601f106116345761010080835404028352916020019161165f565b820191906000526020600020905b81548152906001019060200180831161164257829003601f168201915b5050505050815260200160038201805461167890614d3e565b80601f01602080910402602001604051908101604052809291908181526020018280546116a490614d3e565b80156116f15780601f106116c6576101008083540402835291602001916116f1565b820191906000526020600020905b8154815290600101906020018083116116d457829003601f168201915b5050505050815260200160048201805461170a90614d3e565b80601f016020809104026020016040519081016040528092919081815260200182805461173690614d3e565b80156117835780601f1061175857610100808354040283529160200191611783565b820191906000526020600020905b81548152906001019060200180831161176657829003601f168201915b5050505050815260200160058201805461179c90614d3e565b80601f01602080910402602001604051908101604052809291908181526020018280546117c890614d3e565b80156118155780601f106117ea57610100808354040283529160200191611815565b820191906000526020600020905b8154815290600101906020018083116117f857829003601f168201915b5050505050815260200160068201805461182e90614d3e565b80601f016020809104026020016040519081016040528092919081815260200182805461185a90614d3e565b80156118a75780601f1061187c576101008083540402835291602001916118a7565b820191906000526020600020905b81548152906001019060200180831161188a57829003601f168201915b505050505081526020016007820180546118c090614d3e565b80601f01602080910402602001604051908101604052809291908181526020018280546118ec90614d3e565b80156119395780601f1061190e57610100808354040283529160200191611939565b820191906000526020600020905b81548152906001019060200180831161191c57829003601f168201915b5050505050815260200160088201805461195290614d3e565b80601f016020809104026020016040519081016040528092919081815260200182805461197e90614d3e565b80156119cb5780601f106119a0576101008083540402835291602001916119cb565b820191906000526020600020905b8154815290600101906020018083116119ae57829003601f168201915b505050505081526020016009820180546119e490614d3e565b80601f0160208091040260200160405190810160405280929190818152602001828054611a1090614d3e565b8015611a5d5780601f10611a3257610100808354040283529160200191611a5d565b820191906000526020600020905b815481529060010190602001808311611a4057829003601f168201915b5050509190925250509051949350505050565b600360205260009081526040902080548190611a8b90614d3e565b80601f0160208091040260200160405190810160405280929190818152602001828054611ab790614d3e565b8015611b045780601f10611ad957610100808354040283529160200191611b04565b820191906000526020600020905b815481529060010190602001808311611ae757829003601f168201915b505050505090806001018054611b1990614d3e565b80601f0160208091040260200160405190810160405280929190818152602001828054611b4590614d3e565b8015611b925780601f10611b6757610100808354040283529160200191611b92565b820191906000526020600020905b815481529060010190602001808311611b7557829003601f168201915b5050505050905082565b606060006001600084815260200190815260200160002060405180610140016040529081600082018054611bcf90614d3e565b80601f0160208091040260200160405190810160405280929190818152602001828054611bfb90614d3e565b8015611c485780601f10611c1d57610100808354040283529160200191611c48565b820191906000526020600020905b815481529060010190602001808311611c2b57829003601f168201915b50505050508152602001600182018054611c6190614d3e565b80601f0160208091040260200160405190810160405280929190818152602001828054611c8d90614d3e565b8015611cda5780601f10611caf57610100808354040283529160200191611cda565b820191906000526020600020905b815481529060010190602001808311611cbd57829003601f168201915b50505050508152602001600282018054611cf390614d3e565b80601f0160208091040260200160405190810160405280929190818152602001828054611d1f90614d3e565b8015611d6c5780601f10611d4157610100808354040283529160200191611d6c565b820191906000526020600020905b815481529060010190602001808311611d4f57829003601f168201915b50505050508152602001600382018054611d8590614d3e565b80601f0160208091040260200160405190810160405280929190818152602001828054611db190614d3e565b8015611dfe5780601f10611dd357610100808354040283529160200191611dfe565b820191906000526020600020905b815481529060010190602001808311611de157829003601f168201915b50505050508152602001600482018054611e1790614d3e565b80601f0160208091040260200160405190810160405280929190818152602001828054611e4390614d3e565b8015611e905780601f10611e6557610100808354040283529160200191611e90565b820191906000526020600020905b815481529060010190602001808311611e7357829003601f168201915b50505050508152602001600582018054611ea990614d3e565b80601f0160208091040260200160405190810160405280929190818152602001828054611ed590614d3e565b8015611f225780601f10611ef757610100808354040283529160200191611f22565b820191906000526020600020905b815481529060010190602001808311611f0557829003601f168201915b50505050508152602001600682018054611f3b90614d3e565b80601f0160208091040260200160405190810160405280929190818152602001828054611f6790614d3e565b8015611fb45780601f10611f8957610100808354040283529160200191611fb4565b820191906000526020600020905b815481529060010190602001808311611f9757829003601f168201915b50505050508152602001600782018054611fcd90614d3e565b80601f0160208091040260200160405190810160405280929190818152602001828054611ff990614d3e565b80156120465780601f1061201b57610100808354040283529160200191612046565b820191906000526020600020905b81548152906001019060200180831161202957829003601f168201915b5050505050815260200160088201805461205f90614d3e565b80601f016020809104026020016040519081016040528092919081815260200182805461208b90614d3e565b80156120d85780601f106120ad576101008083540402835291602001916120d8565b820191906000526020600020905b8154815290600101906020018083116120bb57829003601f168201915b505050505081526020016009820180546120f190614d3e565b80601f016020809104026020016040519081016040528092919081815260200182805461211d90614d3e565b801561216a5780601f1061213f5761010080835404028352916020019161216a565b820191906000526020600020905b81548152906001019060200180831161214d57829003601f168201915b50505091909252505050604001519392505050565b6060600060016000848152602001908152602001600020604051806101400160405290816000820180546121b290614d3e565b80601f01602080910402602001604051908101604052809291908181526020018280546121de90614d3e565b801561222b5780601f106122005761010080835404028352916020019161222b565b820191906000526020600020905b81548152906001019060200180831161220e57829003601f168201915b5050505050815260200160018201805461224490614d3e565b80601f016020809104026020016040519081016040528092919081815260200182805461227090614d3e565b80156122bd5780601f10612292576101008083540402835291602001916122bd565b820191906000526020600020905b8154815290600101906020018083116122a057829003601f168201915b505050505081526020016002820180546122d690614d3e565b80601f016020809104026020016040519081016040528092919081815260200182805461230290614d3e565b801561234f5780601f106123245761010080835404028352916020019161234f565b820191906000526020600020905b81548152906001019060200180831161233257829003601f168201915b5050505050815260200160038201805461236890614d3e565b80601f016020809104026020016040519081016040528092919081815260200182805461239490614d3e565b80156123e15780601f106123b6576101008083540402835291602001916123e1565b820191906000526020600020905b8154815290600101906020018083116123c457829003601f168201915b505050505081526020016004820180546123fa90614d3e565b80601f016020809104026020016040519081016040528092919081815260200182805461242690614d3e565b80156124735780601f1061244857610100808354040283529160200191612473565b820191906000526020600020905b81548152906001019060200180831161245657829003601f168201915b5050505050815260200160058201805461248c90614d3e565b80601f01602080910402602001604051908101604052809291908181526020018280546124b890614d3e565b80156125055780601f106124da57610100808354040283529160200191612505565b820191906000526020600020905b8154815290600101906020018083116124e857829003601f168201915b5050505050815260200160068201805461251e90614d3e565b80601f016020809104026020016040519081016040528092919081815260200182805461254a90614d3e565b80156125975780601f1061256c57610100808354040283529160200191612597565b820191906000526020600020905b81548152906001019060200180831161257a57829003601f168201915b505050505081526020016007820180546125b090614d3e565b80601f01602080910402602001604051908101604052809291908181526020018280546125dc90614d3e565b80156126295780601f106125fe57610100808354040283529160200191612629565b820191906000526020600020905b81548152906001019060200180831161260c57829003601f168201915b5050505050815260200160088201805461264290614d3e565b80601f016020809104026020016040519081016040528092919081815260200182805461266e90614d3e565b80156126bb5780601f10612690576101008083540402835291602001916126bb565b820191906000526020600020905b81548152906001019060200180831161269e57829003601f168201915b505050505081526020016009820180546126d490614d3e565b80601f016020809104026020016040519081016040528092919081815260200182805461270090614d3e565b801561274d5780601f106127225761010080835404028352916020019161274d565b820191906000526020600020905b81548152906001019060200180831161273057829003601f168201915b50505091909252505050602001519392505050565b60606000600160008481526020019081526020016000206040518061014001604052908160008201805461279590614d3e565b80601f01602080910402602001604051908101604052809291908181526020018280546127c190614d3e565b801561280e5780601f106127e35761010080835404028352916020019161280e565b820191906000526020600020905b8154815290600101906020018083116127f157829003601f168201915b5050505050815260200160018201805461282790614d3e565b80601f016020809104026020016040519081016040528092919081815260200182805461285390614d3e565b80156128a05780601f10612875576101008083540402835291602001916128a0565b820191906000526020600020905b81548152906001019060200180831161288357829003601f168201915b505050505081526020016002820180546128b990614d3e565b80601f01602080910402602001604051908101604052809291908181526020018280546128e590614d3e565b80156129325780601f1061290757610100808354040283529160200191612932565b820191906000526020600020905b81548152906001019060200180831161291557829003601f168201915b5050505050815260200160038201805461294b90614d3e565b80601f016020809104026020016040519081016040528092919081815260200182805461297790614d3e565b80156129c45780601f10612999576101008083540402835291602001916129c4565b820191906000526020600020905b8154815290600101906020018083116129a757829003601f168201915b505050505081526020016004820180546129dd90614d3e565b80601f0160208091040260200160405190810160405280929190818152602001828054612a0990614d3e565b8015612a565780601f10612a2b57610100808354040283529160200191612a56565b820191906000526020600020905b815481529060010190602001808311612a3957829003601f168201915b50505050508152602001600582018054612a6f90614d3e565b80601f0160208091040260200160405190810160405280929190818152602001828054612a9b90614d3e565b8015612ae85780601f10612abd57610100808354040283529160200191612ae8565b820191906000526020600020905b815481529060010190602001808311612acb57829003601f168201915b50505050508152602001600682018054612b0190614d3e565b80601f0160208091040260200160405190810160405280929190818152602001828054612b2d90614d3e565b8015612b7a5780601f10612b4f57610100808354040283529160200191612b7a565b820191906000526020600020905b815481529060010190602001808311612b5d57829003601f168201915b50505050508152602001600782018054612b9390614d3e565b80601f0160208091040260200160405190810160405280929190818152602001828054612bbf90614d3e565b8015612c0c5780601f10612be157610100808354040283529160200191612c0c565b820191906000526020600020905b815481529060010190602001808311612bef57829003601f168201915b50505050508152602001600882018054612c2590614d3e565b80601f0160208091040260200160405190810160405280929190818152602001828054612c5190614d3e565b8015612c9e5780601f10612c7357610100808354040283529160200191612c9e565b820191906000526020600020905b815481529060010190602001808311612c8157829003601f168201915b50505050508152602001600982018054612cb790614d3e565b80601f0160208091040260200160405190810160405280929190818152602001828054612ce390614d3e565b8015612d305780601f10612d0557610100808354040283529160200191612d30565b820191906000526020600020905b815481529060010190602001808311612d1357829003601f168201915b5050509190925250505061010001519392505050565b600160205260009081526040902080548190612d6190614d3e565b80601f0160208091040260200160405190810160405280929190818152602001828054612d8d90614d3e565b8015612dda5780601f10612daf57610100808354040283529160200191612dda565b820191906000526020600020905b815481529060010190602001808311612dbd57829003601f168201915b505050505090806001018054612def90614d3e565b80601f0160208091040260200160405190810160405280929190818152602001828054612e1b90614d3e565b8015612e685780601f10612e3d57610100808354040283529160200191612e68565b820191906000526020600020905b815481529060010190602001808311612e4b57829003601f168201915b505050505090806002018054612e7d90614d3e565b80601f0160208091040260200160405190810160405280929190818152602001828054612ea990614d3e565b8015612ef65780601f10612ecb57610100808354040283529160200191612ef6565b820191906000526020600020905b815481529060010190602001808311612ed957829003601f168201915b505050505090806003018054612f0b90614d3e565b80601f0160208091040260200160405190810160405280929190818152602001828054612f3790614d3e565b8015612f845780601f10612f5957610100808354040283529160200191612f84565b820191906000526020600020905b815481529060010190602001808311612f6757829003601f168201915b505050505090806004018054612f9990614d3e565b80601f0160208091040260200160405190810160405280929190818152602001828054612fc590614d3e565b80156130125780601f10612fe757610100808354040283529160200191613012565b820191906000526020600020905b815481529060010190602001808311612ff557829003601f168201915b50505050509080600501805461302790614d3e565b80601f016020809104026020016040519081016040528092919081815260200182805461305390614d3e565b80156130a05780601f10613075576101008083540402835291602001916130a0565b820191906000526020600020905b81548152906001019060200180831161308357829003601f168201915b5050505050908060060180546130b590614d3e565b80601f01602080910402602001604051908101604052809291908181526020018280546130e190614d3e565b801561312e5780601f106131035761010080835404028352916020019161312e565b820191906000526020600020905b81548152906001019060200180831161311157829003601f168201915b50505050509080600701805461314390614d3e565b80601f016020809104026020016040519081016040528092919081815260200182805461316f90614d3e565b80156131bc5780601f10613191576101008083540402835291602001916131bc565b820191906000526020600020905b81548152906001019060200180831161319f57829003601f168201915b5050505050908060080180546131d190614d3e565b80601f01602080910402602001604051908101604052809291908181526020018280546131fd90614d3e565b801561324a5780601f1061321f5761010080835404028352916020019161324a565b820191906000526020600020905b81548152906001019060200180831161322d57829003601f168201915b50505050509080600901805461325f90614d3e565b80601f016020809104026020016040519081016040528092919081815260200182805461328b90614d3e565b80156132d85780601f106132ad576101008083540402835291602001916132d8565b820191906000526020600020905b8154815290600101906020018083116132bb57829003601f168201915b505050505090508a565b60606000600160008481526020019081526020016000206040518061014001604052908160008201805461331590614d3e565b80601f016020809104026020016040519081016040528092919081815260200182805461334190614d3e565b801561338e5780601f106133635761010080835404028352916020019161338e565b820191906000526020600020905b81548152906001019060200180831161337157829003601f168201915b505050505081526020016001820180546133a790614d3e565b80601f01602080910402602001604051908101604052809291908181526020018280546133d390614d3e565b80156134205780601f106133f557610100808354040283529160200191613420565b820191906000526020600020905b81548152906001019060200180831161340357829003601f168201915b5050505050815260200160028201805461343990614d3e565b80601f016020809104026020016040519081016040528092919081815260200182805461346590614d3e565b80156134b25780601f10613487576101008083540402835291602001916134b2565b820191906000526020600020905b81548152906001019060200180831161349557829003601f168201915b505050505081526020016003820180546134cb90614d3e565b80601f01602080910402602001604051908101604052809291908181526020018280546134f790614d3e565b80156135445780601f1061351957610100808354040283529160200191613544565b820191906000526020600020905b81548152906001019060200180831161352757829003601f168201915b5050505050815260200160048201805461355d90614d3e565b80601f016020809104026020016040519081016040528092919081815260200182805461358990614d3e565b80156135d65780601f106135ab576101008083540402835291602001916135d6565b820191906000526020600020905b8154815290600101906020018083116135b957829003601f168201915b505050505081526020016005820180546135ef90614d3e565b80601f016020809104026020016040519081016040528092919081815260200182805461361b90614d3e565b80156136685780601f1061363d57610100808354040283529160200191613668565b820191906000526020600020905b81548152906001019060200180831161364b57829003601f168201915b5050505050815260200160068201805461368190614d3e565b80601f01602080910402602001604051908101604052809291908181526020018280546136ad90614d3e565b80156136fa5780601f106136cf576101008083540402835291602001916136fa565b820191906000526020600020905b8154815290600101906020018083116136dd57829003601f168201915b5050505050815260200160078201805461371390614d3e565b80601f016020809104026020016040519081016040528092919081815260200182805461373f90614d3e565b801561378c5780601f106137615761010080835404028352916020019161378c565b820191906000526020600020905b81548152906001019060200180831161376f57829003601f168201915b505050505081526020016008820180546137a590614d3e565b80601f01602080910402602001604051908101604052809291908181526020018280546137d190614d3e565b801561381e5780601f106137f35761010080835404028352916020019161381e565b820191906000526020600020905b81548152906001019060200180831161380157829003601f168201915b5050505050815260200160098201805461383790614d3e565b80601f016020809104026020016040519081016040528092919081815260200182805461386390614d3e565b80156138b05780601f10613885576101008083540402835291602001916138b0565b820191906000526020600020905b81548152906001019060200180831161389357829003601f168201915b50505091909252505050608001519392505050565b60408051808201825283815260208082018490526002546000908152600382529290922081518051929391926138fe9284920190614871565b5060208281015180516139179260018501920190614871565b50506002546040519091507f1ed675bb725b3a8b0434b9ee956fe05e4c0e79f9dc67c3f1a717a5bb1fd88fd390600090a26002805490600061395883614d92565b91905055505050565b6040518061014001604052808b81526020018a815260200189815260200188815260200187815260200186815260200185815260200184815260200183815260200182815250600160008054815260200190815260200160002060008201518160000190805190602001906139d7929190614871565b5060208281015180516139f09260018501920190614871565b5060408201518051613a0c916002840191602090910190614871565b5060608201518051613a28916003840191602090910190614871565b5060808201518051613a44916004840191602090910190614871565b5060a08201518051613a60916005840191602090910190614871565b5060c08201518051613a7c916006840191602090910190614871565b5060e08201518051613a98916007840191602090910190614871565b506101008201518051613ab5916008840191602090910190614871565b506101208201518051613ad2916009840191602090910190614871565b5050600080546040519092507ff4224cd6c7ed3445821a4ff1790b40b497827b0297e5a5d9c550a16f86e5ca4b9190a2600080549080613b1183614d92565b919050555050505050505050505050565b606060006001600084815260200190815260200160002060405180610140016040529081600082018054613b5590614d3e565b80601f0160208091040260200160405190810160405280929190818152602001828054613b8190614d3e565b8015613bce5780601f10613ba357610100808354040283529160200191613bce565b820191906000526020600020905b815481529060010190602001808311613bb157829003601f168201915b50505050508152602001600182018054613be790614d3e565b80601f0160208091040260200160405190810160405280929190818152602001828054613c1390614d3e565b8015613c605780601f10613c3557610100808354040283529160200191613c60565b820191906000526020600020905b815481529060010190602001808311613c4357829003601f168201915b50505050508152602001600282018054613c7990614d3e565b80601f0160208091040260200160405190810160405280929190818152602001828054613ca590614d3e565b8015613cf25780601f10613cc757610100808354040283529160200191613cf2565b820191906000526020600020905b815481529060010190602001808311613cd557829003601f168201915b50505050508152602001600382018054613d0b90614d3e565b80601f0160208091040260200160405190810160405280929190818152602001828054613d3790614d3e565b8015613d845780601f10613d5957610100808354040283529160200191613d84565b820191906000526020600020905b815481529060010190602001808311613d6757829003601f168201915b50505050508152602001600482018054613d9d90614d3e565b80601f0160208091040260200160405190810160405280929190818152602001828054613dc990614d3e565b8015613e165780601f10613deb57610100808354040283529160200191613e16565b820191906000526020600020905b815481529060010190602001808311613df957829003601f168201915b50505050508152602001600582018054613e2f90614d3e565b80601f0160208091040260200160405190810160405280929190818152602001828054613e5b90614d3e565b8015613ea85780601f10613e7d57610100808354040283529160200191613ea8565b820191906000526020600020905b815481529060010190602001808311613e8b57829003601f168201915b50505050508152602001600682018054613ec190614d3e565b80601f0160208091040260200160405190810160405280929190818152602001828054613eed90614d3e565b8015613f3a5780601f10613f0f57610100808354040283529160200191613f3a565b820191906000526020600020905b815481529060010190602001808311613f1d57829003601f168201915b50505050508152602001600782018054613f5390614d3e565b80601f0160208091040260200160405190810160405280929190818152602001828054613f7f90614d3e565b8015613fcc5780601f10613fa157610100808354040283529160200191613fcc565b820191906000526020600020905b815481529060010190602001808311613faf57829003601f168201915b50505050508152602001600882018054613fe590614d3e565b80601f016020809104026020016040519081016040528092919081815260200182805461401190614d3e565b801561405e5780601f106140335761010080835404028352916020019161405e565b820191906000526020600020905b81548152906001019060200180831161404157829003601f168201915b5050505050815260200160098201805461407790614d3e565b80601f01602080910402602001604051908101604052809291908181526020018280546140a390614d3e565b80156140f05780601f106140c5576101008083540402835291602001916140f0565b820191906000526020600020905b8154815290600101906020018083116140d357829003601f168201915b5050509190925250505060c001519392505050565b60606000600160008481526020019081526020016000206040518061014001604052908160008201805461413890614d3e565b80601f016020809104026020016040519081016040528092919081815260200182805461416490614d3e565b80156141b15780601f10614186576101008083540402835291602001916141b1565b820191906000526020600020905b81548152906001019060200180831161419457829003601f168201915b505050505081526020016001820180546141ca90614d3e565b80601f01602080910402602001604051908101604052809291908181526020018280546141f690614d3e565b80156142435780601f1061421857610100808354040283529160200191614243565b820191906000526020600020905b81548152906001019060200180831161422657829003601f168201915b5050505050815260200160028201805461425c90614d3e565b80601f016020809104026020016040519081016040528092919081815260200182805461428890614d3e565b80156142d55780601f106142aa576101008083540402835291602001916142d5565b820191906000526020600020905b8154815290600101906020018083116142b857829003601f168201915b505050505081526020016003820180546142ee90614d3e565b80601f016020809104026020016040519081016040528092919081815260200182805461431a90614d3e565b80156143675780601f1061433c57610100808354040283529160200191614367565b820191906000526020600020905b81548152906001019060200180831161434a57829003601f168201915b5050505050815260200160048201805461438090614d3e565b80601f01602080910402602001604051908101604052809291908181526020018280546143ac90614d3e565b80156143f95780601f106143ce576101008083540402835291602001916143f9565b820191906000526020600020905b8154815290600101906020018083116143dc57829003601f168201915b5050505050815260200160058201805461441290614d3e565b80601f016020809104026020016040519081016040528092919081815260200182805461443e90614d3e565b801561448b5780601f106144605761010080835404028352916020019161448b565b820191906000526020600020905b81548152906001019060200180831161446e57829003601f168201915b505050505081526020016006820180546144a490614d3e565b80601f01602080910402602001604051908101604052809291908181526020018280546144d090614d3e565b801561451d5780601f106144f25761010080835404028352916020019161451d565b820191906000526020600020905b81548152906001019060200180831161450057829003601f168201915b5050505050815260200160078201805461453690614d3e565b80601f016020809104026020016040519081016040528092919081815260200182805461456290614d3e565b80156145af5780601f10614584576101008083540402835291602001916145af565b820191906000526020600020905b81548152906001019060200180831161459257829003601f168201915b505050505081526020016008820180546145c890614d3e565b80601f01602080910402602001604051908101604052809291908181526020018280546145f490614d3e565b80156146415780601f1061461657610100808354040283529160200191614641565b820191906000526020600020905b81548152906001019060200180831161462457829003601f168201915b5050505050815260200160098201805461465a90614d3e565b80601f016020809104026020016040519081016040528092919081815260200182805461468690614d3e565b80156146d35780601f106146a8576101008083540402835291602001916146d3565b820191906000526020600020905b8154815290600101906020018083116146b657829003601f168201915b5050509190925250505061012001519392505050565b606060006003600084815260200190815260200160002060405180604001604052908160008201805461471b90614d3e565b80601f016020809104026020016040519081016040528092919081815260200182805461474790614d3e565b80156147945780601f1061476957610100808354040283529160200191614794565b820191906000526020600020905b81548152906001019060200180831161477757829003601f168201915b505050505081526020016001820180546119e490614d3e565b60606000600360008481526020019081526020016000206040518060400160405290816000820180546147df90614d3e565b80601f016020809104026020016040519081016040528092919081815260200182805461480b90614d3e565b80156148585780601f1061482d57610100808354040283529160200191614858565b820191906000526020600020905b81548152906001019060200180831161483b57829003601f168201915b505050505081526020016001820180546126d490614d3e565b82805461487d90614d3e565b90600052602060002090601f01602090048101928261489f57600085556148e5565b82601f106148b857805160ff19168380011785556148e5565b828001600101855582156148e5579182015b828111156148e55782518255916020019190600101906148ca565b506148f19291506148f5565b5090565b5b808211156148f157600081556001016148f6565b60006020828403121561491c57600080fd5b5035919050565b6000815180845260005b818110156149495760208185018101518683018201520161492d565b8181111561495b576000602083870101525b50601f01601f19169290920160200192915050565b6020815260006149836020830184614923565b9392505050565b60408152600061499d6040830185614923565b82810360208401526149af8185614923565b95945050505050565b60006101408083526149cc8184018e614923565b905082810360208401526149e0818d614923565b905082810360408401526149f4818c614923565b90508281036060840152614a08818b614923565b90508281036080840152614a1c818a614923565b905082810360a0840152614a308189614923565b905082810360c0840152614a448188614923565b905082810360e0840152614a588187614923565b9050828103610100840152614a6d8186614923565b9050828103610120840152614a828185614923565b9d9c50505050505050505050505050565b7f4e487b7100000000000000000000000000000000000000000000000000000000600052604160045260246000fd5b600082601f830112614ad357600080fd5b813567ffffffffffffffff80821115614aee57614aee614a93565b604051601f8301601f19908116603f01168101908282118183101715614b1657614b16614a93565b81604052838152866020858801011115614b2f57600080fd5b836020870160208301376000602085830101528094505050505092915050565b60008060408385031215614b6257600080fd5b823567ffffffffffffffff80821115614b7a57600080fd5b614b8686838701614ac2565b93506020850135915080821115614b9c57600080fd5b50614ba985828601614ac2565b9150509250929050565b6000806000806000806000806000806101408b8d031215614bd357600080fd5b8a3567ffffffffffffffff80821115614beb57600080fd5b614bf78e838f01614ac2565b9b5060208d0135915080821115614c0d57600080fd5b614c198e838f01614ac2565b9a5060408d0135915080821115614c2f57600080fd5b614c3b8e838f01614ac2565b995060608d0135915080821115614c5157600080fd5b614c5d8e838f01614ac2565b985060808d0135915080821115614c7357600080fd5b614c7f8e838f01614ac2565b975060a08d0135915080821115614c9557600080fd5b614ca18e838f01614ac2565b965060c08d0135915080821115614cb757600080fd5b614cc38e838f01614ac2565b955060e08d0135915080821115614cd957600080fd5b614ce58e838f01614ac2565b94506101008d0135915080821115614cfc57600080fd5b614d088e838f01614ac2565b93506101208d0135915080821115614d1f57600080fd5b50614d2c8d828e01614ac2565b9150509295989b9194979a5092959850565b600281046001821680614d5257607f821691505b60208210811415614d8c577f4e487b7100000000000000000000000000000000000000000000000000000000600052602260045260246000fd5b50919050565b6000600019821415614dcd577f4e487b7100000000000000000000000000000000000000000000000000000000600052601160045260246000fd5b506001019056fea26469706673582212205d86d06d4d3db09040c937aa3cb777e2e63d758907809389d66febddc2b4374964736f6c634300080b0033",
  "immutableReferences": {},
  "source": "pragma solidity >= 0.8.11 <= 0.8.11;\r\npragma experimental ABIEncoderV2;\r\n//cheque solidity code\r\ncontract ExamContract {\r\n\r\n    uint public studentCount = 0; \r\n    mapping(uint => student) public studentList; \r\n     struct student\r\n     {\r\n       string studentId;\r\n       string name;\r\n       string firstQuestion;\r\n       string secondQuestion;\r\n       string thirdQuestion;\r\n       string fourthQuestion;\r\n       string fifthQuestion;\r\n       string completeDate; \r\n       string timeTaken;\r\n       string grade;\r\n     }\r\n \r\n   // events \r\n   event studentCreated(uint indexed _studentId);\r\n\r\n  \r\n   //function  to save grade details\r\n   function createGrade(string memory sid, string memory sname, string memory first, string memory second, string memory third, string memory fourth, string memory fifth, string memory cd, string memory tt, string memory g) public {\r\n      studentList[studentCount] = student(sid, sname, first, second, third, fourth, fifth, cd, tt, g);\r\n      emit studentCreated(studentCount);\r\n     studentCount++;\r\n    }\r\n\r\n     //get student count\r\n    function getStudentCount()  public view returns (uint) {\r\n          return  studentCount;\r\n    }\r\n\r\n    function getStudentId(uint i) public view returns (string memory) {\r\n        student memory s = studentList[i];\r\n\treturn s.studentId;\r\n    }\r\n\r\n    function getName(uint i) public view returns (string memory) {\r\n        student memory s = studentList[i];\r\n\treturn s.name;\r\n    }\r\n\r\n    function getFirstQuestion(uint i) public view returns (string memory) {\r\n        student memory s = studentList[i];\r\n\treturn s.firstQuestion;\r\n    }\r\n\r\n    function getSecondQuestion(uint i) public view returns (string memory) {\r\n        student memory s = studentList[i];\r\n\treturn s.secondQuestion;\r\n    }\r\n\r\n    function getThirdQuestion(uint i) public view returns (string memory) {\r\n        student memory s = studentList[i];\r\n\treturn s.thirdQuestion;\r\n    }\r\n    function getFourthQuestion(uint i) public view returns (string memory) {\r\n        student memory s = studentList[i];\r\n\treturn s.fourthQuestion;\r\n    }\r\n    function getFifthQuestion(uint i) public view returns (string memory) {\r\n        student memory s = studentList[i];\r\n\treturn s.fifthQuestion;\r\n    }\r\n\r\n    function getDate(uint i) public view returns (string memory) {\r\n        student memory s = studentList[i];\r\n\treturn s.completeDate;\r\n    }\r\n\r\n    function getTime(uint i) public view returns (string memory) {\r\n       student memory s = studentList[i];\r\n\treturn s.timeTaken;\r\n    }\r\n\r\n    function getGrade(uint i) public view returns (string memory) {\r\n        student memory s = studentList[i];\r\n\treturn s.grade;\r\n    }\r\n\r\n    uint public userCount = 0; \r\n    mapping(uint => user) public usersList; \r\n     struct user\r\n     {\r\n       string username;\r\n       string password;     \r\n       \r\n     }\r\n \r\n   // events\r\n \r\n   event userCreated(uint indexed _userId);\r\n \r\n  function createUser(string memory _username, string memory _password) public {\r\n      usersList[userCount] = user(_username, _password);\r\n      emit userCreated(userCount);\r\n      userCount++;\r\n    }\r\n\r\n    \r\n     //get user count\r\n    function getUserCount()  public view returns (uint) {\r\n          return  userCount;\r\n    }\r\n\r\n    function getUsername(uint i) public view returns (string memory) {\r\n        user memory usr = usersList[i];\r\n\treturn usr.username;\r\n    }\r\n\r\n    function getPassword(uint i) public view returns (string memory) {\r\n        user memory usr = usersList[i];\r\n\treturn usr.password;\r\n    }    \r\n    \r\n}",
  "sourcePath": "C:\\Users\\Admin\\Desktop\\Blockchain\\hello-eth\\node_modules\\.bin\\contracts\\ExamContract.sol",
  "compiler": {
    "name": "solc",
    "version": "0.8.11+commit.d7f03943.Emscripten.clang"
  },
  "schemaVersion": "3.4.4",
  "updatedAt": "2025-01-09T15:53:12.279Z",
  "networkType": "ethereum",
  "devdoc": {
    "kind": "dev",
    "methods": {},
    "version": 1
  },
  "userdoc": {
    "kind": "user",
    "methods": {},
    "version": 1
  }
}